{
  "contractName": "ResearchPaper",
  "abi": [
    {
      "anonymous": false,
      "inputs": [
        {
          "indexed": true,
          "internalType": "uint256",
          "name": "paperId",
          "type": "uint256"
        },
        {
          "indexed": true,
          "internalType": "address",
          "name": "borrower",
          "type": "address"
        },
        {
          "indexed": false,
          "internalType": "uint256",
          "name": "extendedTime",
          "type": "uint256"
        }
      ],
      "name": "BorrowExtended",
      "type": "event"
    },
    {
      "anonymous": false,
      "inputs": [
        {
          "indexed": true,
          "internalType": "address",
          "name": "previousOwner",
          "type": "address"
        },
        {
          "indexed": true,
          "internalType": "address",
          "name": "newOwner",
          "type": "address"
        }
      ],
      "name": "OwnershipTransferred",
      "type": "event"
    },
    {
      "anonymous": false,
      "inputs": [
        {
          "indexed": true,
          "internalType": "uint256",
          "name": "paperId",
          "type": "uint256"
        },
        {
          "indexed": true,
          "internalType": "address",
          "name": "borrower",
          "type": "address"
        },
        {
          "indexed": false,
          "internalType": "uint256",
          "name": "duration",
          "type": "uint256"
        }
      ],
      "name": "PaperBorrowed",
      "type": "event"
    },
    {
      "anonymous": false,
      "inputs": [
        {
          "indexed": true,
          "internalType": "uint256",
          "name": "paperId",
          "type": "uint256"
        },
        {
          "indexed": true,
          "internalType": "address",
          "name": "citer",
          "type": "address"
        }
      ],
      "name": "PaperCited",
      "type": "event"
    },
    {
      "anonymous": false,
      "inputs": [
        {
          "indexed": true,
          "internalType": "uint256",
          "name": "paperId",
          "type": "uint256"
        },
        {
          "indexed": true,
          "internalType": "address",
          "name": "buyer",
          "type": "address"
        }
      ],
      "name": "PaperPurchased",
      "type": "event"
    },
    {
      "anonymous": false,
      "inputs": [
        {
          "indexed": true,
          "internalType": "uint256",
          "name": "paperId",
          "type": "uint256"
        },
        {
          "indexed": false,
          "internalType": "string",
          "name": "title",
          "type": "string"
        },
        {
          "indexed": true,
          "internalType": "address",
          "name": "owner",
          "type": "address"
        },
        {
          "indexed": false,
          "internalType": "enum ResearchPaper.AccessType",
          "name": "accessType",
          "type": "uint8"
        }
      ],
      "name": "PaperUploaded",
      "type": "event"
    },
    {
      "inputs": [
        {
          "internalType": "uint256",
          "name": "",
          "type": "uint256"
        },
        {
          "internalType": "address",
          "name": "",
          "type": "address"
        }
      ],
      "name": "borrowedPapers",
      "outputs": [
        {
          "internalType": "uint256",
          "name": "startTime",
          "type": "uint256"
        },
        {
          "internalType": "bool",
          "name": "isBorrowed",
          "type": "bool"
        }
      ],
      "stateMutability": "view",
      "type": "function",
      "constant": true
    },
    {
      "inputs": [],
      "name": "owner",
      "outputs": [
        {
          "internalType": "address",
          "name": "",
          "type": "address"
        }
      ],
      "stateMutability": "view",
      "type": "function",
      "constant": true
    },
    {
      "inputs": [
        {
          "internalType": "uint256",
          "name": "",
          "type": "uint256"
        },
        {
          "internalType": "uint256",
          "name": "",
          "type": "uint256"
        }
      ],
      "name": "paperAccessList",
      "outputs": [
        {
          "internalType": "address",
          "name": "",
          "type": "address"
        }
      ],
      "stateMutability": "view",
      "type": "function",
      "constant": true
    },
    {
      "inputs": [
        {
          "internalType": "uint256",
          "name": "",
          "type": "uint256"
        }
      ],
      "name": "papers",
      "outputs": [
        {
          "internalType": "uint256",
          "name": "id",
          "type": "uint256"
        },
        {
          "internalType": "string",
          "name": "title",
          "type": "string"
        },
        {
          "internalType": "string",
          "name": "author",
          "type": "string"
        },
        {
          "internalType": "string",
          "name": "ipfsHash",
          "type": "string"
        },
        {
          "internalType": "address",
          "name": "owner",
          "type": "address"
        },
        {
          "internalType": "uint256",
          "name": "price",
          "type": "uint256"
        },
        {
          "internalType": "enum ResearchPaper.AccessType",
          "name": "accessType",
          "type": "uint8"
        },
        {
          "internalType": "uint256",
          "name": "borrowDuration",
          "type": "uint256"
        },
        {
          "internalType": "uint256",
          "name": "citations",
          "type": "uint256"
        }
      ],
      "stateMutability": "view",
      "type": "function",
      "constant": true
    },
    {
      "inputs": [],
      "name": "renounceOwnership",
      "outputs": [],
      "stateMutability": "nonpayable",
      "type": "function"
    },
    {
      "inputs": [
        {
          "internalType": "address",
          "name": "newOwner",
          "type": "address"
        }
      ],
      "name": "transferOwnership",
      "outputs": [],
      "stateMutability": "nonpayable",
      "type": "function"
    },
    {
      "inputs": [
        {
          "internalType": "string",
          "name": "_title",
          "type": "string"
        },
        {
          "internalType": "string",
          "name": "_author",
          "type": "string"
        },
        {
          "internalType": "string",
          "name": "_ipfsHash",
          "type": "string"
        },
        {
          "internalType": "uint256",
          "name": "_price",
          "type": "uint256"
        },
        {
          "internalType": "enum ResearchPaper.AccessType",
          "name": "_accessType",
          "type": "uint8"
        },
        {
          "internalType": "uint256",
          "name": "_borrowDuration",
          "type": "uint256"
        }
      ],
      "name": "uploadPaper",
      "outputs": [],
      "stateMutability": "nonpayable",
      "type": "function"
    },
    {
      "inputs": [
        {
          "internalType": "uint256",
          "name": "_paperId",
          "type": "uint256"
        }
      ],
      "name": "purchasePaper",
      "outputs": [],
      "stateMutability": "payable",
      "type": "function",
      "payable": true
    },
    {
      "inputs": [
        {
          "internalType": "uint256",
          "name": "_paperId",
          "type": "uint256"
        }
      ],
      "name": "borrowPaper",
      "outputs": [],
      "stateMutability": "payable",
      "type": "function",
      "payable": true
    },
    {
      "inputs": [
        {
          "internalType": "uint256",
          "name": "_paperId",
          "type": "uint256"
        }
      ],
      "name": "extendBorrow",
      "outputs": [],
      "stateMutability": "payable",
      "type": "function",
      "payable": true
    },
    {
      "inputs": [
        {
          "internalType": "uint256",
          "name": "_paperId",
          "type": "uint256"
        }
      ],
      "name": "citePaper",
      "outputs": [],
      "stateMutability": "nonpayable",
      "type": "function"
    },
    {
      "inputs": [
        {
          "internalType": "uint256",
          "name": "_paperId",
          "type": "uint256"
        },
        {
          "internalType": "address",
          "name": "user",
          "type": "address"
        }
      ],
      "name": "checkAccess",
      "outputs": [
        {
          "internalType": "bool",
          "name": "",
          "type": "bool"
        }
      ],
      "stateMutability": "view",
      "type": "function",
      "constant": true
    }
  ],
  "bytecode": "0x60806040523480156200001157600080fd5b5062000032620000266200003860201b60201c565b6200004060201b60201c565b62000104565b600033905090565b60008060009054906101000a900473ffffffffffffffffffffffffffffffffffffffff169050816000806101000a81548173ffffffffffffffffffffffffffffffffffffffff021916908373ffffffffffffffffffffffffffffffffffffffff1602179055508173ffffffffffffffffffffffffffffffffffffffff168173ffffffffffffffffffffffffffffffffffffffff167f8be0079c531659141344cd1fd0a4f28419497f9722a3daafe3b4186f6b6457e060405160405180910390a35050565b6124ca80620001146000396000f3fe6080604052600436106100a75760003560e01c8063859fdfd311610064578063859fdfd3146101a65780638da5cb5b146101cf578063d13c8703146101fa578063e4103a0014610237578063eb45ced614610253578063f2fde38b14610291576100a7565b806322aed1d7146100ac57806335b92d79146100c857806341fdc196146101055780635e775a271461012157806361ce4a4614610166578063715018a61461018f575b600080fd5b6100c660048036038101906100c19190611580565b6102ba565b005b3480156100d457600080fd5b506100ef60048036038101906100ea91906115ad565b610587565b6040516100fc919061162e565b60405180910390f35b61011f600480360381019061011a9190611580565b6105d5565b005b34801561012d57600080fd5b5061014860048036038101906101439190611580565b610886565b60405161015d9998979695949392919061175f565b60405180910390f35b34801561017257600080fd5b5061018d6004803603810190610188919061195b565b610a99565b005b34801561019b57600080fd5b506101a4610d0f565b005b3480156101b257600080fd5b506101cd60048036038101906101c89190611580565b610d23565b005b3480156101db57600080fd5b506101e4610ea3565b6040516101f1919061162e565b60405180910390f35b34801561020657600080fd5b50610221600480360381019061021c9190611a68565b610ecc565b60405161022e9190611ac3565b60405180910390f35b610251600480360381019061024c9190611580565b61110a565b005b34801561025f57600080fd5b5061027a60048036038101906102759190611a68565b611307565b604051610288929190611ade565b60405180910390f35b34801561029d57600080fd5b506102b860048036038101906102b39190611b07565b611345565b005b60006002600083815260200190815260200160002090506002808111156102e4576102e36116e8565b5b8160060160009054906101000a900460ff166002811115610308576103076116e8565b5b14610348576040517f08c379a000000000000000000000000000000000000000000000000000000000815260040161033f90611ba6565b60405180910390fd5b806005015434101561038f576040517f08c379a000000000000000000000000000000000000000000000000000000000815260040161038690611c12565b60405180910390fd5b6004600083815260200190815260200160002060003373ffffffffffffffffffffffffffffffffffffffff1673ffffffffffffffffffffffffffffffffffffffff16815260200190815260200160002060010160009054906101000a900460ff1615610430576040517f08c379a000000000000000000000000000000000000000000000000000000000815260040161042790611c7e565b60405180910390fd5b8060040160009054906101000a900473ffffffffffffffffffffffffffffffffffffffff1673ffffffffffffffffffffffffffffffffffffffff166108fc349081150290604051600060405180830381858888f1935050505015801561049a573d6000803e3d6000fd5b506040518060400160405280428152602001600115158152506004600084815260200190815260200160002060003373ffffffffffffffffffffffffffffffffffffffff1673ffffffffffffffffffffffffffffffffffffffff1681526020019081526020016000206000820151816000015560208201518160010160006101000a81548160ff0219169083151502179055509050503373ffffffffffffffffffffffffffffffffffffffff16827fe380ba2ecefaed478955649968f528bdc9066f959ea139b1ab675b5f1bca82f4836007015460405161057b9190611c9e565b60405180910390a35050565b600560205281600052604060002081815481106105a357600080fd5b906000526020600020016000915091509054906101000a900473ffffffffffffffffffffffffffffffffffffffff1681565b60006002600083815260200190815260200160002090506002808111156105ff576105fe6116e8565b5b8160060160009054906101000a900460ff166002811115610623576106226116e8565b5b14610663576040517f08c379a000000000000000000000000000000000000000000000000000000000815260040161065a90611ba6565b60405180910390fd5b6004600083815260200190815260200160002060003373ffffffffffffffffffffffffffffffffffffffff1673ffffffffffffffffffffffffffffffffffffffff16815260200190815260200160002060010160009054906101000a900460ff16610703576040517f08c379a00000000000000000000000000000000000000000000000000000000081526004016106fa90611d05565b60405180910390fd5b600281600501546107149190611d83565b341015610756576040517f08c379a000000000000000000000000000000000000000000000000000000000815260040161074d90611e26565b60405180910390fd5b8060040160009054906101000a900473ffffffffffffffffffffffffffffffffffffffff1673ffffffffffffffffffffffffffffffffffffffff166108fc349081150290604051600060405180830381858888f193505050501580156107c0573d6000803e3d6000fd5b5080600701546004600084815260200190815260200160002060003373ffffffffffffffffffffffffffffffffffffffff1673ffffffffffffffffffffffffffffffffffffffff16815260200190815260200160002060000160008282546108289190611e46565b925050819055503373ffffffffffffffffffffffffffffffffffffffff16827f142aca4051492758f56f2402233fdeb197d58f88cbe44f6d49e023e5d6512bfd836007015460405161087a9190611c9e565b60405180910390a35050565b60026020528060005260406000206000915090508060000154908060010180546108af90611ea9565b80601f01602080910402602001604051908101604052809291908181526020018280546108db90611ea9565b80156109285780601f106108fd57610100808354040283529160200191610928565b820191906000526020600020905b81548152906001019060200180831161090b57829003601f168201915b50505050509080600201805461093d90611ea9565b80601f016020809104026020016040519081016040528092919081815260200182805461096990611ea9565b80156109b65780601f1061098b576101008083540402835291602001916109b6565b820191906000526020600020905b81548152906001019060200180831161099957829003601f168201915b5050505050908060030180546109cb90611ea9565b80601f01602080910402602001604051908101604052809291908181526020018280546109f790611ea9565b8015610a445780601f10610a1957610100808354040283529160200191610a44565b820191906000526020600020905b815481529060010190602001808311610a2757829003601f168201915b5050505050908060040160009054906101000a900473ffffffffffffffffffffffffffffffffffffffff16908060050154908060060160009054906101000a900460ff16908060070154908060080154905089565b600384604051610aa99190611f16565b908152602001604051809103902060009054906101000a900460ff1615610b05576040517f08c379a0000000000000000000000000000000000000000000000000000000008152600401610afc90611f79565b60405180910390fd5b610b0f60016113c8565b6000610b1b60016113de565b90506040518061012001604052808281526020018881526020018781526020018681526020013373ffffffffffffffffffffffffffffffffffffffff168152602001858152602001846002811115610b7657610b756116e8565b5b8152602001838152602001600081525060026000838152602001908152602001600020600082015181600001556020820151816001019081610bb89190612145565b506040820151816002019081610bce9190612145565b506060820151816003019081610be49190612145565b5060808201518160040160006101000a81548173ffffffffffffffffffffffffffffffffffffffff021916908373ffffffffffffffffffffffffffffffffffffffff16021790555060a0820151816005015560c08201518160060160006101000a81548160ff02191690836002811115610c6157610c606116e8565b5b021790555060e0820151816007015561010082015181600801559050506001600386604051610c909190611f16565b908152602001604051809103902060006101000a81548160ff0219169083151502179055503373ffffffffffffffffffffffffffffffffffffffff16817f9447e8112cda2579be272c7d047c15ee7ff9a92dd352a5b2871c680b1bc7c4538986604051610cfe929190612217565b60405180910390a350505050505050565b610d176113ec565b610d21600061146a565b565b6000600260008381526020019081526020016000209050600073ffffffffffffffffffffffffffffffffffffffff168160040160009054906101000a900473ffffffffffffffffffffffffffffffffffffffff1673ffffffffffffffffffffffffffffffffffffffff1603610dcd576040517f08c379a0000000000000000000000000000000000000000000000000000000008152600401610dc490612293565b60405180910390fd5b6001816008016000828254610de29190611e46565b925050819055508060040160009054906101000a900473ffffffffffffffffffffffffffffffffffffffff1673ffffffffffffffffffffffffffffffffffffffff166108fc66038d7ea4c680009081150290604051600060405180830381858888f19350505050158015610e5a573d6000803e3d6000fd5b503373ffffffffffffffffffffffffffffffffffffffff16827f8481fa31ef2f1d759512f0c1b5b40c9f53590c7685046d087da5fc4a9432f3b760405160405180910390a35050565b60008060009054906101000a900473ffffffffffffffffffffffffffffffffffffffff16905090565b60008060026000858152602001908152602001600020905060006002811115610ef857610ef76116e8565b5b8160060160009054906101000a900460ff166002811115610f1c57610f1b6116e8565b5b03610f2b576001915050611104565b60016002811115610f3f57610f3e6116e8565b5b8160060160009054906101000a900460ff166002811115610f6357610f626116e8565b5b0361102b5760005b6005600086815260200190815260200160002080549050811015611029578373ffffffffffffffffffffffffffffffffffffffff16600560008781526020019081526020016000208281548110610fc557610fc46122b3565b5b9060005260206000200160009054906101000a900473ffffffffffffffffffffffffffffffffffffffff1673ffffffffffffffffffffffffffffffffffffffff160361101657600192505050611104565b8080611021906122e2565b915050610f6b565b505b60028081111561103e5761103d6116e8565b5b8160060160009054906101000a900460ff166002811115611062576110616116e8565b5b036110fe5760006004600086815260200190815260200160002060008573ffffffffffffffffffffffffffffffffffffffff1673ffffffffffffffffffffffffffffffffffffffff16815260200190815260200160002090508060010160009054906101000a900460ff1680156110ec5750816007015481600001546110e89190611e46565b4211155b156110fc57600192505050611104565b505b60009150505b92915050565b600060026000838152602001908152602001600020905060016002811115611135576111346116e8565b5b8160060160009054906101000a900460ff166002811115611159576111586116e8565b5b14611199576040517f08c379a000000000000000000000000000000000000000000000000000000000815260040161119090612376565b60405180910390fd5b80600501543410156111e0576040517f08c379a00000000000000000000000000000000000000000000000000000000081526004016111d790611c12565b60405180910390fd5b8060040160009054906101000a900473ffffffffffffffffffffffffffffffffffffffff1673ffffffffffffffffffffffffffffffffffffffff166108fc349081150290604051600060405180830381858888f1935050505015801561124a573d6000803e3d6000fd5b5060056000838152602001908152602001600020339080600181540180825580915050600190039060005260206000200160009091909190916101000a81548173ffffffffffffffffffffffffffffffffffffffff021916908373ffffffffffffffffffffffffffffffffffffffff1602179055503373ffffffffffffffffffffffffffffffffffffffff16827f65dd57919bf552b93cf6a438a22a2fd748880db082798a56a2375675bd0c7fb960405160405180910390a35050565b6004602052816000526040600020602052806000526040600020600091509150508060000154908060010160009054906101000a900460ff16905082565b61134d6113ec565b600073ffffffffffffffffffffffffffffffffffffffff168173ffffffffffffffffffffffffffffffffffffffff16036113bc576040517f08c379a00000000000000000000000000000000000000000000000000000000081526004016113b390612408565b60405180910390fd5b6113c58161146a565b50565b6001816000016000828254019250508190555050565b600081600001549050919050565b6113f461152e565b73ffffffffffffffffffffffffffffffffffffffff16611412610ea3565b73ffffffffffffffffffffffffffffffffffffffff1614611468576040517f08c379a000000000000000000000000000000000000000000000000000000000815260040161145f90612474565b60405180910390fd5b565b60008060009054906101000a900473ffffffffffffffffffffffffffffffffffffffff169050816000806101000a81548173ffffffffffffffffffffffffffffffffffffffff021916908373ffffffffffffffffffffffffffffffffffffffff1602179055508173ffffffffffffffffffffffffffffffffffffffff168173ffffffffffffffffffffffffffffffffffffffff167f8be0079c531659141344cd1fd0a4f28419497f9722a3daafe3b4186f6b6457e060405160405180910390a35050565b600033905090565b6000604051905090565b600080fd5b600080fd5b6000819050919050565b61155d8161154a565b811461156857600080fd5b50565b60008135905061157a81611554565b92915050565b60006020828403121561159657611595611540565b5b60006115a48482850161156b565b91505092915050565b600080604083850312156115c4576115c3611540565b5b60006115d28582860161156b565b92505060206115e38582860161156b565b9150509250929050565b600073ffffffffffffffffffffffffffffffffffffffff82169050919050565b6000611618826115ed565b9050919050565b6116288161160d565b82525050565b6000602082019050611643600083018461161f565b92915050565b6116528161154a565b82525050565b600081519050919050565b600082825260208201905092915050565b60005b83811015611692578082015181840152602081019050611677565b60008484015250505050565b6000601f19601f8301169050919050565b60006116ba82611658565b6116c48185611663565b93506116d4818560208601611674565b6116dd8161169e565b840191505092915050565b7f4e487b7100000000000000000000000000000000000000000000000000000000600052602160045260246000fd5b60038110611728576117276116e8565b5b50565b600081905061173982611717565b919050565b60006117498261172b565b9050919050565b6117598161173e565b82525050565b600061012082019050611775600083018c611649565b8181036020830152611787818b6116af565b9050818103604083015261179b818a6116af565b905081810360608301526117af81896116af565b90506117be608083018861161f565b6117cb60a0830187611649565b6117d860c0830186611750565b6117e560e0830185611649565b6117f3610100830184611649565b9a9950505050505050505050565b600080fd5b600080fd5b7f4e487b7100000000000000000000000000000000000000000000000000000000600052604160045260246000fd5b6118438261169e565b810181811067ffffffffffffffff821117156118625761186161180b565b5b80604052505050565b6000611875611536565b9050611881828261183a565b919050565b600067ffffffffffffffff8211156118a1576118a061180b565b5b6118aa8261169e565b9050602081019050919050565b82818337600083830152505050565b60006118d96118d484611886565b61186b565b9050828152602081018484840111156118f5576118f4611806565b5b6119008482856118b7565b509392505050565b600082601f83011261191d5761191c611801565b5b813561192d8482602086016118c6565b91505092915050565b6003811061194357600080fd5b50565b60008135905061195581611936565b92915050565b60008060008060008060c0878903121561197857611977611540565b5b600087013567ffffffffffffffff81111561199657611995611545565b5b6119a289828a01611908565b965050602087013567ffffffffffffffff8111156119c3576119c2611545565b5b6119cf89828a01611908565b955050604087013567ffffffffffffffff8111156119f0576119ef611545565b5b6119fc89828a01611908565b9450506060611a0d89828a0161156b565b9350506080611a1e89828a01611946565b92505060a0611a2f89828a0161156b565b9150509295509295509295565b611a458161160d565b8114611a5057600080fd5b50565b600081359050611a6281611a3c565b92915050565b60008060408385031215611a7f57611a7e611540565b5b6000611a8d8582860161156b565b9250506020611a9e85828601611a53565b9150509250929050565b60008115159050919050565b611abd81611aa8565b82525050565b6000602082019050611ad86000830184611ab4565b92915050565b6000604082019050611af36000830185611649565b611b006020830184611ab4565b9392505050565b600060208284031215611b1d57611b1c611540565b5b6000611b2b84828501611a53565b91505092915050565b7f5061706572206973206e6f7420617661696c61626c6520666f7220626f72726f60008201527f77696e6700000000000000000000000000000000000000000000000000000000602082015250565b6000611b90602483611663565b9150611b9b82611b34565b604082019050919050565b60006020820190508181036000830152611bbf81611b83565b9050919050565b7f496e73756666696369656e74207061796d656e74000000000000000000000000600082015250565b6000611bfc601483611663565b9150611c0782611bc6565b602082019050919050565b60006020820190508181036000830152611c2b81611bef565b9050919050565b7f416c726561647920626f72726f77656400000000000000000000000000000000600082015250565b6000611c68601083611663565b9150611c7382611c32565b602082019050919050565b60006020820190508181036000830152611c9781611c5b565b9050919050565b6000602082019050611cb36000830184611649565b92915050565b7f596f752068617665206e6f7420626f72726f7765642074686973207061706572600082015250565b6000611cef602083611663565b9150611cfa82611cb9565b602082019050919050565b60006020820190508181036000830152611d1e81611ce2565b9050919050565b7f4e487b7100000000000000000000000000000000000000000000000000000000600052601260045260246000fd5b7f4e487b7100000000000000000000000000000000000000000000000000000000600052601160045260246000fd5b6000611d8e8261154a565b9150611d998361154a565b925082611da957611da8611d25565b5b828204905092915050565b7f496e73756666696369656e74207061796d656e7420666f7220657874656e736960008201527f6f6e000000000000000000000000000000000000000000000000000000000000602082015250565b6000611e10602283611663565b9150611e1b82611db4565b604082019050919050565b60006020820190508181036000830152611e3f81611e03565b9050919050565b6000611e518261154a565b9150611e5c8361154a565b9250828201905080821115611e7457611e73611d54565b5b92915050565b7f4e487b7100000000000000000000000000000000000000000000000000000000600052602260045260246000fd5b60006002820490506001821680611ec157607f821691505b602082108103611ed457611ed3611e7a565b5b50919050565b600081905092915050565b6000611ef082611658565b611efa8185611eda565b9350611f0a818560208601611674565b80840191505092915050565b6000611f228284611ee5565b915081905092915050565b7f506170657220616c726561647920657869737473000000000000000000000000600082015250565b6000611f63601483611663565b9150611f6e82611f2d565b602082019050919050565b60006020820190508181036000830152611f9281611f56565b9050919050565b60008190508160005260206000209050919050565b60006020601f8301049050919050565b600082821b905092915050565b600060088302611ffb7fffffffffffffffffffffffffffffffffffffffffffffffffffffffffffffffff82611fbe565b6120058683611fbe565b95508019841693508086168417925050509392505050565b6000819050919050565b600061204261203d6120388461154a565b61201d565b61154a565b9050919050565b6000819050919050565b61205c83612027565b61207061206882612049565b848454611fcb565b825550505050565b600090565b612085612078565b612090818484612053565b505050565b5b818110156120b4576120a960008261207d565b600181019050612096565b5050565b601f8211156120f9576120ca81611f99565b6120d384611fae565b810160208510156120e2578190505b6120f66120ee85611fae565b830182612095565b50505b505050565b600082821c905092915050565b600061211c600019846008026120fe565b1980831691505092915050565b6000612135838361210b565b9150826002028217905092915050565b61214e82611658565b67ffffffffffffffff8111156121675761216661180b565b5b6121718254611ea9565b61217c8282856120b8565b600060209050601f8311600181146121af576000841561219d578287015190505b6121a78582612129565b86555061220f565b601f1984166121bd86611f99565b60005b828110156121e5578489015182556001820191506020850194506020810190506121c0565b8683101561220257848901516121fe601f89168261210b565b8355505b6001600288020188555050505b505050505050565b6000604082019050818103600083015261223181856116af565b90506122406020830184611750565b9392505050565b7f496e76616c696420706170657200000000000000000000000000000000000000600082015250565b600061227d600d83611663565b915061228882612247565b602082019050919050565b600060208201905081810360008301526122ac81612270565b9050919050565b7f4e487b7100000000000000000000000000000000000000000000000000000000600052603260045260246000fd5b60006122ed8261154a565b91507fffffffffffffffffffffffffffffffffffffffffffffffffffffffffffffffff820361231f5761231e611d54565b5b600182019050919050565b7f5061706572206973206e6f7420666f722073616c650000000000000000000000600082015250565b6000612360601583611663565b915061236b8261232a565b602082019050919050565b6000602082019050818103600083015261238f81612353565b9050919050565b7f4f776e61626c653a206e6577206f776e657220697320746865207a65726f206160008201527f6464726573730000000000000000000000000000000000000000000000000000602082015250565b60006123f2602683611663565b91506123fd82612396565b604082019050919050565b60006020820190508181036000830152612421816123e5565b9050919050565b7f4f776e61626c653a2063616c6c6572206973206e6f7420746865206f776e6572600082015250565b600061245e602083611663565b915061246982612428565b602082019050919050565b6000602082019050818103600083015261248d81612451565b905091905056fea26469706673582212205b7f7dbe5dedb91002f796ec8688027860ba8fa98d276f08336c0a287bec0aad64736f6c63430008130033",
  "immutableReferences": {},
  "source": "// SPDX-License-Identifier: MIT\r\npragma solidity ^0.8.19;\r\n\r\nimport \"@openzeppelin/contracts/access/Ownable.sol\";\r\nimport \"@openzeppelin/contracts/utils/Counters.sol\";\r\n\r\ncontract ResearchPaper is Ownable {\r\n    using Counters for Counters.Counter;\r\n    Counters.Counter private _paperIds;\r\n\r\n    enum AccessType { Free, Paid, Borrow }\r\n\r\n    struct Paper {\r\n        uint256 id;\r\n        string title;\r\n        string author;\r\n        string ipfsHash;\r\n        address owner;\r\n        uint256 price;\r\n        AccessType accessType;\r\n        uint256 borrowDuration; \r\n        uint256 citations;\r\n    }\r\n\r\n    struct BorrowedPaper {\r\n        uint256 startTime;\r\n        bool isBorrowed;\r\n    }\r\n\r\n    mapping(uint256 => Paper) public papers;\r\n    mapping(string => bool) private existingHashes;\r\n    mapping(uint256 => mapping(address => BorrowedPaper)) public borrowedPapers;\r\n    mapping(uint256 => address[]) public paperAccessList;\r\n\r\n    event PaperUploaded(uint256 indexed paperId, string title, address indexed owner, AccessType accessType);\r\n    event PaperPurchased(uint256 indexed paperId, address indexed buyer);\r\n    event PaperCited(uint256 indexed paperId, address indexed citer);\r\n    event PaperBorrowed(uint256 indexed paperId, address indexed borrower, uint256 duration);\r\n    event BorrowExtended(uint256 indexed paperId, address indexed borrower, uint256 extendedTime);\r\n\r\n    function uploadPaper(\r\n        string memory _title,\r\n        string memory _author,\r\n        string memory _ipfsHash,\r\n        uint256 _price,\r\n        AccessType _accessType,\r\n        uint256 _borrowDuration\r\n    ) public {\r\n        require(!existingHashes[_ipfsHash], \"Paper already exists\");\r\n\r\n        _paperIds.increment();\r\n        uint256 paperId = _paperIds.current();\r\n\r\n        papers[paperId] = Paper({\r\n            id: paperId,\r\n            title: _title,\r\n            author: _author,\r\n            ipfsHash: _ipfsHash,\r\n            owner: msg.sender,\r\n            price: _price,\r\n            accessType: _accessType,\r\n            borrowDuration: _borrowDuration,\r\n            citations: 0\r\n        });\r\n\r\n        existingHashes[_ipfsHash] = true;\r\n\r\n        emit PaperUploaded(paperId, _title, msg.sender, _accessType);\r\n    }\r\n\r\n    function purchasePaper(uint256 _paperId) public payable {\r\n        Paper storage paper = papers[_paperId];\r\n        require(paper.accessType == AccessType.Paid, \"Paper is not for sale\");\r\n        require(msg.value >= paper.price, \"Insufficient payment\");\r\n\r\n        payable(paper.owner).transfer(msg.value);\r\n        paperAccessList[_paperId].push(msg.sender);\r\n\r\n        emit PaperPurchased(_paperId, msg.sender);\r\n    }\r\n\r\n    function borrowPaper(uint256 _paperId) public payable {\r\n        Paper storage paper = papers[_paperId];\r\n        require(paper.accessType == AccessType.Borrow, \"Paper is not available for borrowing\");\r\n        require(msg.value >= paper.price, \"Insufficient payment\");\r\n        require(!borrowedPapers[_paperId][msg.sender].isBorrowed, \"Already borrowed\");\r\n\r\n        payable(paper.owner).transfer(msg.value);\r\n        borrowedPapers[_paperId][msg.sender] = BorrowedPaper({\r\n            startTime: block.timestamp,\r\n            isBorrowed: true\r\n        });\r\n\r\n        emit PaperBorrowed(_paperId, msg.sender, paper.borrowDuration);\r\n    }\r\n\r\n    function extendBorrow(uint256 _paperId) public payable {\r\n        Paper storage paper = papers[_paperId];\r\n        require(paper.accessType == AccessType.Borrow, \"Paper is not available for borrowing\");\r\n        require(borrowedPapers[_paperId][msg.sender].isBorrowed, \"You have not borrowed this paper\");\r\n        require(msg.value >= paper.price / 2, \"Insufficient payment for extension\"); // Extension is half the price\r\n\r\n        payable(paper.owner).transfer(msg.value);\r\n        borrowedPapers[_paperId][msg.sender].startTime += paper.borrowDuration;\r\n\r\n        emit BorrowExtended(_paperId, msg.sender, paper.borrowDuration);\r\n    }\r\n\r\n    function citePaper(uint256 _paperId) public {\r\n        Paper storage paper = papers[_paperId];\r\n        require(paper.owner != address(0), \"Invalid paper\");\r\n\r\n        paper.citations += 1;\r\n        payable(paper.owner).transfer(0.001 ether); // Reward for citations\r\n\r\n        emit PaperCited(_paperId, msg.sender);\r\n    }\r\n\r\n    function checkAccess(uint256 _paperId, address user) public view returns (bool) {\r\n        Paper storage paper = papers[_paperId];\r\n\r\n        if (paper.accessType == AccessType.Free) {\r\n            return true;\r\n        }\r\n\r\n        if (paper.accessType == AccessType.Paid) {\r\n            for (uint i = 0; i < paperAccessList[_paperId].length; i++) {\r\n                if (paperAccessList[_paperId][i] == user) {\r\n                    return true;\r\n                }\r\n            }\r\n        }\r\n\r\n        if (paper.accessType == AccessType.Borrow) {\r\n            BorrowedPaper storage borrowed = borrowedPapers[_paperId][user];\r\n            if (borrowed.isBorrowed && block.timestamp <= borrowed.startTime + paper.borrowDuration) {\r\n                return true;\r\n            }\r\n        }\r\n\r\n        return false;\r\n    }\r\n}\r\n",
  "sourcePath": "C:\\Users\\P Sheetal Reddy\\Desktop\\VIT\\blockchain\\project\\Research Paper Liscencing platform\\contracts\\ResearchPaper.sol",
  "compiler": {
    "name": "solc",
    "version": "0.8.19+commit.7dd6d404.Emscripten.clang"
  },
  "schemaVersion": "3.4.16",
  "updatedAt": "2025-02-28T15:20:53.395Z",
  "networkType": "ethereum",
  "devdoc": {
    "kind": "dev",
    "methods": {
      "owner()": {
        "details": "Returns the address of the current owner."
      },
      "renounceOwnership()": {
        "details": "Leaves the contract without owner. It will not be possible to call `onlyOwner` functions. Can only be called by the current owner. NOTE: Renouncing ownership will leave the contract without an owner, thereby disabling any functionality that is only available to the owner."
      },
      "transferOwnership(address)": {
        "details": "Transfers ownership of the contract to a new account (`newOwner`). Can only be called by the current owner."
      }
    },
    "version": 1
  },
  "userdoc": {
    "kind": "user",
    "methods": {},
    "version": 1
  }
}