{
  "contractName": "ResearchPaper",
  "abi": [
    {
      "anonymous": false,
      "inputs": [
        {
          "indexed": true,
          "internalType": "address",
          "name": "previousOwner",
          "type": "address"
        },
        {
          "indexed": true,
          "internalType": "address",
          "name": "newOwner",
          "type": "address"
        }
      ],
      "name": "OwnershipTransferred",
      "type": "event"
    },
    {
      "anonymous": false,
      "inputs": [
        {
          "indexed": true,
          "internalType": "uint256",
          "name": "paperId",
          "type": "uint256"
        },
        {
          "indexed": true,
          "internalType": "address",
          "name": "citer",
          "type": "address"
        }
      ],
      "name": "PaperCited",
      "type": "event"
    },
    {
      "anonymous": false,
      "inputs": [
        {
          "indexed": true,
          "internalType": "uint256",
          "name": "paperId",
          "type": "uint256"
        },
        {
          "indexed": true,
          "internalType": "address",
          "name": "buyer",
          "type": "address"
        }
      ],
      "name": "PaperPurchased",
      "type": "event"
    },
    {
      "anonymous": false,
      "inputs": [
        {
          "indexed": true,
          "internalType": "uint256",
          "name": "paperId",
          "type": "uint256"
        },
        {
          "indexed": false,
          "internalType": "string",
          "name": "title",
          "type": "string"
        },
        {
          "indexed": true,
          "internalType": "address",
          "name": "owner",
          "type": "address"
        }
      ],
      "name": "PaperUploaded",
      "type": "event"
    },
    {
      "inputs": [],
      "name": "owner",
      "outputs": [
        {
          "internalType": "address",
          "name": "",
          "type": "address"
        }
      ],
      "stateMutability": "view",
      "type": "function",
      "constant": true
    },
    {
      "inputs": [
        {
          "internalType": "uint256",
          "name": "",
          "type": "uint256"
        },
        {
          "internalType": "uint256",
          "name": "",
          "type": "uint256"
        }
      ],
      "name": "paperAccessList",
      "outputs": [
        {
          "internalType": "address",
          "name": "",
          "type": "address"
        }
      ],
      "stateMutability": "view",
      "type": "function",
      "constant": true
    },
    {
      "inputs": [
        {
          "internalType": "uint256",
          "name": "",
          "type": "uint256"
        }
      ],
      "name": "papers",
      "outputs": [
        {
          "internalType": "uint256",
          "name": "id",
          "type": "uint256"
        },
        {
          "internalType": "string",
          "name": "title",
          "type": "string"
        },
        {
          "internalType": "string",
          "name": "author",
          "type": "string"
        },
        {
          "internalType": "string",
          "name": "ipfsHash",
          "type": "string"
        },
        {
          "internalType": "address",
          "name": "owner",
          "type": "address"
        },
        {
          "internalType": "uint256",
          "name": "price",
          "type": "uint256"
        },
        {
          "internalType": "uint256",
          "name": "citations",
          "type": "uint256"
        }
      ],
      "stateMutability": "view",
      "type": "function",
      "constant": true
    },
    {
      "inputs": [],
      "name": "renounceOwnership",
      "outputs": [],
      "stateMutability": "nonpayable",
      "type": "function"
    },
    {
      "inputs": [
        {
          "internalType": "address",
          "name": "newOwner",
          "type": "address"
        }
      ],
      "name": "transferOwnership",
      "outputs": [],
      "stateMutability": "nonpayable",
      "type": "function"
    },
    {
      "inputs": [
        {
          "internalType": "string",
          "name": "_title",
          "type": "string"
        },
        {
          "internalType": "string",
          "name": "_author",
          "type": "string"
        },
        {
          "internalType": "string",
          "name": "_ipfsHash",
          "type": "string"
        },
        {
          "internalType": "uint256",
          "name": "_price",
          "type": "uint256"
        }
      ],
      "name": "uploadPaper",
      "outputs": [],
      "stateMutability": "nonpayable",
      "type": "function"
    },
    {
      "inputs": [
        {
          "internalType": "uint256",
          "name": "_paperId",
          "type": "uint256"
        }
      ],
      "name": "purchasePaper",
      "outputs": [],
      "stateMutability": "payable",
      "type": "function",
      "payable": true
    },
    {
      "inputs": [
        {
          "internalType": "uint256",
          "name": "_paperId",
          "type": "uint256"
        }
      ],
      "name": "citePaper",
      "outputs": [],
      "stateMutability": "nonpayable",
      "type": "function"
    },
    {
      "inputs": [
        {
          "internalType": "uint256",
          "name": "_paperId",
          "type": "uint256"
        }
      ],
      "name": "getPaper",
      "outputs": [
        {
          "components": [
            {
              "internalType": "uint256",
              "name": "id",
              "type": "uint256"
            },
            {
              "internalType": "string",
              "name": "title",
              "type": "string"
            },
            {
              "internalType": "string",
              "name": "author",
              "type": "string"
            },
            {
              "internalType": "string",
              "name": "ipfsHash",
              "type": "string"
            },
            {
              "internalType": "address",
              "name": "owner",
              "type": "address"
            },
            {
              "internalType": "uint256",
              "name": "price",
              "type": "uint256"
            },
            {
              "internalType": "uint256",
              "name": "citations",
              "type": "uint256"
            }
          ],
          "internalType": "struct ResearchPaper.Paper",
          "name": "",
          "type": "tuple"
        }
      ],
      "stateMutability": "view",
      "type": "function",
      "constant": true
    },
    {
      "inputs": [
        {
          "internalType": "uint256",
          "name": "_paperId",
          "type": "uint256"
        },
        {
          "internalType": "address",
          "name": "user",
          "type": "address"
        }
      ],
      "name": "checkAccess",
      "outputs": [
        {
          "internalType": "bool",
          "name": "",
          "type": "bool"
        }
      ],
      "stateMutability": "view",
      "type": "function",
      "constant": true
    }
  ],
  "bytecode": "0x608060405234801561001057600080fd5b5061002d61002261003260201b60201c565b61003a60201b60201c565b6100fe565b600033905090565b60008060009054906101000a900473ffffffffffffffffffffffffffffffffffffffff169050816000806101000a81548173ffffffffffffffffffffffffffffffffffffffff021916908373ffffffffffffffffffffffffffffffffffffffff1602179055508173ffffffffffffffffffffffffffffffffffffffff168173ffffffffffffffffffffffffffffffffffffffff167f8be0079c531659141344cd1fd0a4f28419497f9722a3daafe3b4186f6b6457e060405160405180910390a35050565b611c458061010d6000396000f3fe6080604052600436106100915760003560e01c8063859fdfd311610059578063859fdfd3146101935780638da5cb5b146101bc578063d13c8703146101e7578063e4103a0014610224578063f2fde38b1461024057610091565b806307993f041461009657806335b92d79146100d35780635e775a2714610110578063715018a6146101535780637a73730c1461016a575b600080fd5b3480156100a257600080fd5b506100bd60048036038101906100b89190610fc1565b610269565b6040516100ca9190611178565b60405180910390f35b3480156100df57600080fd5b506100fa60048036038101906100f5919061119a565b6104c0565b60405161010791906111e9565b60405180910390f35b34801561011c57600080fd5b5061013760048036038101906101329190610fc1565b61050e565b60405161014a979695949392919061125d565b60405180910390f35b34801561015f57600080fd5b50610168610708565b005b34801561017657600080fd5b50610191600480360381019061018c9190611416565b61071c565b005b34801561019f57600080fd5b506101ba60048036038101906101b59190610fc1565b610934565b005b3480156101c857600080fd5b506101d1610ab4565b6040516101de91906111e9565b60405180910390f35b3480156101f357600080fd5b5061020e600480360381019061020991906114fd565b610add565b60405161021b9190611558565b60405180910390f35b61023e60048036038101906102399190610fc1565b610bae565b005b34801561024c57600080fd5b5061026760048036038101906102629190611573565b610d33565b005b610271610f24565b600260008381526020019081526020016000206040518060e0016040529081600082015481526020016001820180546102a9906115cf565b80601f01602080910402602001604051908101604052809291908181526020018280546102d5906115cf565b80156103225780601f106102f757610100808354040283529160200191610322565b820191906000526020600020905b81548152906001019060200180831161030557829003601f168201915b5050505050815260200160028201805461033b906115cf565b80601f0160208091040260200160405190810160405280929190818152602001828054610367906115cf565b80156103b45780601f10610389576101008083540402835291602001916103b4565b820191906000526020600020905b81548152906001019060200180831161039757829003601f168201915b505050505081526020016003820180546103cd906115cf565b80601f01602080910402602001604051908101604052809291908181526020018280546103f9906115cf565b80156104465780601f1061041b57610100808354040283529160200191610446565b820191906000526020600020905b81548152906001019060200180831161042957829003601f168201915b505050505081526020016004820160009054906101000a900473ffffffffffffffffffffffffffffffffffffffff1673ffffffffffffffffffffffffffffffffffffffff1673ffffffffffffffffffffffffffffffffffffffff168152602001600582015481526020016006820154815250509050919050565b600460205281600052604060002081815481106104dc57600080fd5b906000526020600020016000915091509054906101000a900473ffffffffffffffffffffffffffffffffffffffff1681565b6002602052806000526040600020600091509050806000015490806001018054610537906115cf565b80601f0160208091040260200160405190810160405280929190818152602001828054610563906115cf565b80156105b05780601f10610585576101008083540402835291602001916105b0565b820191906000526020600020905b81548152906001019060200180831161059357829003601f168201915b5050505050908060020180546105c5906115cf565b80601f01602080910402602001604051908101604052809291908181526020018280546105f1906115cf565b801561063e5780601f106106135761010080835404028352916020019161063e565b820191906000526020600020905b81548152906001019060200180831161062157829003601f168201915b505050505090806003018054610653906115cf565b80601f016020809104026020016040519081016040528092919081815260200182805461067f906115cf565b80156106cc5780601f106106a1576101008083540402835291602001916106cc565b820191906000526020600020905b8154815290600101906020018083116106af57829003601f168201915b5050505050908060040160009054906101000a900473ffffffffffffffffffffffffffffffffffffffff16908060050154908060060154905087565b610710610db6565b61071a6000610e34565b565b60038260405161072c919061163c565b908152602001604051809103902060009054906101000a900460ff1615610788576040517f08c379a000000000000000000000000000000000000000000000000000000000815260040161077f9061169f565b60405180910390fd5b6107926001610ef8565b600061079e6001610f0e565b90506040518060e001604052808281526020018681526020018581526020018481526020013373ffffffffffffffffffffffffffffffffffffffff16815260200183815260200160008152506002600083815260200190815260200160002060008201518160000155602082015181600101908161081c919061186b565b506040820151816002019081610832919061186b565b506060820151816003019081610848919061186b565b5060808201518160040160006101000a81548173ffffffffffffffffffffffffffffffffffffffff021916908373ffffffffffffffffffffffffffffffffffffffff16021790555060a0820151816005015560c0820151816006015590505060016003846040516108b9919061163c565b908152602001604051809103902060006101000a81548160ff0219169083151502179055503373ffffffffffffffffffffffffffffffffffffffff16817ff2addd0844bf6c683670be19a71fe7603380bdc0b1a9ecde0137f08b5e0d644a87604051610925919061193d565b60405180910390a35050505050565b6000600260008381526020019081526020016000209050600073ffffffffffffffffffffffffffffffffffffffff168160040160009054906101000a900473ffffffffffffffffffffffffffffffffffffffff1673ffffffffffffffffffffffffffffffffffffffff16036109de576040517f08c379a00000000000000000000000000000000000000000000000000000000081526004016109d5906119ab565b60405180910390fd5b60018160060160008282546109f391906119fa565b925050819055508060040160009054906101000a900473ffffffffffffffffffffffffffffffffffffffff1673ffffffffffffffffffffffffffffffffffffffff166108fc66038d7ea4c680009081150290604051600060405180830381858888f19350505050158015610a6b573d6000803e3d6000fd5b503373ffffffffffffffffffffffffffffffffffffffff16827f8481fa31ef2f1d759512f0c1b5b40c9f53590c7685046d087da5fc4a9432f3b760405160405180910390a35050565b60008060009054906101000a900473ffffffffffffffffffffffffffffffffffffffff16905090565b600080600090505b6004600085815260200190815260200160002080549050811015610ba2578273ffffffffffffffffffffffffffffffffffffffff16600460008681526020019081526020016000208281548110610b3f57610b3e611a2e565b5b9060005260206000200160009054906101000a900473ffffffffffffffffffffffffffffffffffffffff1673ffffffffffffffffffffffffffffffffffffffff1603610b8f576001915050610ba8565b8080610b9a90611a5d565b915050610ae5565b50600090505b92915050565b60006002600083815260200190815260200160002090508060050154341015610c0c576040517f08c379a0000000000000000000000000000000000000000000000000000000008152600401610c0390611af1565b60405180910390fd5b8060040160009054906101000a900473ffffffffffffffffffffffffffffffffffffffff1673ffffffffffffffffffffffffffffffffffffffff166108fc349081150290604051600060405180830381858888f19350505050158015610c76573d6000803e3d6000fd5b5060046000838152602001908152602001600020339080600181540180825580915050600190039060005260206000200160009091909190916101000a81548173ffffffffffffffffffffffffffffffffffffffff021916908373ffffffffffffffffffffffffffffffffffffffff1602179055503373ffffffffffffffffffffffffffffffffffffffff16827f65dd57919bf552b93cf6a438a22a2fd748880db082798a56a2375675bd0c7fb960405160405180910390a35050565b610d3b610db6565b600073ffffffffffffffffffffffffffffffffffffffff168173ffffffffffffffffffffffffffffffffffffffff1603610daa576040517f08c379a0000000000000000000000000000000000000000000000000000000008152600401610da190611b83565b60405180910390fd5b610db381610e34565b50565b610dbe610f1c565b73ffffffffffffffffffffffffffffffffffffffff16610ddc610ab4565b73ffffffffffffffffffffffffffffffffffffffff1614610e32576040517f08c379a0000000000000000000000000000000000000000000000000000000008152600401610e2990611bef565b60405180910390fd5b565b60008060009054906101000a900473ffffffffffffffffffffffffffffffffffffffff169050816000806101000a81548173ffffffffffffffffffffffffffffffffffffffff021916908373ffffffffffffffffffffffffffffffffffffffff1602179055508173ffffffffffffffffffffffffffffffffffffffff168173ffffffffffffffffffffffffffffffffffffffff167f8be0079c531659141344cd1fd0a4f28419497f9722a3daafe3b4186f6b6457e060405160405180910390a35050565b6001816000016000828254019250508190555050565b600081600001549050919050565b600033905090565b6040518060e0016040528060008152602001606081526020016060815260200160608152602001600073ffffffffffffffffffffffffffffffffffffffff16815260200160008152602001600081525090565b6000604051905090565b600080fd5b600080fd5b6000819050919050565b610f9e81610f8b565b8114610fa957600080fd5b50565b600081359050610fbb81610f95565b92915050565b600060208284031215610fd757610fd6610f81565b5b6000610fe584828501610fac565b91505092915050565b610ff781610f8b565b82525050565b600081519050919050565b600082825260208201905092915050565b60005b8381101561103757808201518184015260208101905061101c565b60008484015250505050565b6000601f19601f8301169050919050565b600061105f82610ffd565b6110698185611008565b9350611079818560208601611019565b61108281611043565b840191505092915050565b600073ffffffffffffffffffffffffffffffffffffffff82169050919050565b60006110b88261108d565b9050919050565b6110c8816110ad565b82525050565b600060e0830160008301516110e66000860182610fee565b50602083015184820360208601526110fe8282611054565b915050604083015184820360408601526111188282611054565b915050606083015184820360608601526111328282611054565b915050608083015161114760808601826110bf565b5060a083015161115a60a0860182610fee565b5060c083015161116d60c0860182610fee565b508091505092915050565b6000602082019050818103600083015261119281846110ce565b905092915050565b600080604083850312156111b1576111b0610f81565b5b60006111bf85828601610fac565b92505060206111d085828601610fac565b9150509250929050565b6111e3816110ad565b82525050565b60006020820190506111fe60008301846111da565b92915050565b61120d81610f8b565b82525050565b600082825260208201905092915050565b600061122f82610ffd565b6112398185611213565b9350611249818560208601611019565b61125281611043565b840191505092915050565b600060e082019050611272600083018a611204565b81810360208301526112848189611224565b905081810360408301526112988188611224565b905081810360608301526112ac8187611224565b90506112bb60808301866111da565b6112c860a0830185611204565b6112d560c0830184611204565b98975050505050505050565b600080fd5b600080fd5b7f4e487b7100000000000000000000000000000000000000000000000000000000600052604160045260246000fd5b61132382611043565b810181811067ffffffffffffffff82111715611342576113416112eb565b5b80604052505050565b6000611355610f77565b9050611361828261131a565b919050565b600067ffffffffffffffff821115611381576113806112eb565b5b61138a82611043565b9050602081019050919050565b82818337600083830152505050565b60006113b96113b484611366565b61134b565b9050828152602081018484840111156113d5576113d46112e6565b5b6113e0848285611397565b509392505050565b600082601f8301126113fd576113fc6112e1565b5b813561140d8482602086016113a6565b91505092915050565b600080600080608085870312156114305761142f610f81565b5b600085013567ffffffffffffffff81111561144e5761144d610f86565b5b61145a878288016113e8565b945050602085013567ffffffffffffffff81111561147b5761147a610f86565b5b611487878288016113e8565b935050604085013567ffffffffffffffff8111156114a8576114a7610f86565b5b6114b4878288016113e8565b92505060606114c587828801610fac565b91505092959194509250565b6114da816110ad565b81146114e557600080fd5b50565b6000813590506114f7816114d1565b92915050565b6000806040838503121561151457611513610f81565b5b600061152285828601610fac565b9250506020611533858286016114e8565b9150509250929050565b60008115159050919050565b6115528161153d565b82525050565b600060208201905061156d6000830184611549565b92915050565b60006020828403121561158957611588610f81565b5b6000611597848285016114e8565b91505092915050565b7f4e487b7100000000000000000000000000000000000000000000000000000000600052602260045260246000fd5b600060028204905060018216806115e757607f821691505b6020821081036115fa576115f96115a0565b5b50919050565b600081905092915050565b600061161682610ffd565b6116208185611600565b9350611630818560208601611019565b80840191505092915050565b6000611648828461160b565b915081905092915050565b7f506170657220616c726561647920657869737473000000000000000000000000600082015250565b6000611689601483611213565b915061169482611653565b602082019050919050565b600060208201905081810360008301526116b88161167c565b9050919050565b60008190508160005260206000209050919050565b60006020601f8301049050919050565b600082821b905092915050565b6000600883026117217fffffffffffffffffffffffffffffffffffffffffffffffffffffffffffffffff826116e4565b61172b86836116e4565b95508019841693508086168417925050509392505050565b6000819050919050565b600061176861176361175e84610f8b565b611743565b610f8b565b9050919050565b6000819050919050565b6117828361174d565b61179661178e8261176f565b8484546116f1565b825550505050565b600090565b6117ab61179e565b6117b6818484611779565b505050565b5b818110156117da576117cf6000826117a3565b6001810190506117bc565b5050565b601f82111561181f576117f0816116bf565b6117f9846116d4565b81016020851015611808578190505b61181c611814856116d4565b8301826117bb565b50505b505050565b600082821c905092915050565b600061184260001984600802611824565b1980831691505092915050565b600061185b8383611831565b9150826002028217905092915050565b61187482610ffd565b67ffffffffffffffff81111561188d5761188c6112eb565b5b61189782546115cf565b6118a28282856117de565b600060209050601f8311600181146118d557600084156118c3578287015190505b6118cd858261184f565b865550611935565b601f1984166118e3866116bf565b60005b8281101561190b578489015182556001820191506020850194506020810190506118e6565b868310156119285784890151611924601f891682611831565b8355505b6001600288020188555050505b505050505050565b600060208201905081810360008301526119578184611224565b905092915050565b7f496e76616c696420706170657200000000000000000000000000000000000000600082015250565b6000611995600d83611213565b91506119a08261195f565b602082019050919050565b600060208201905081810360008301526119c481611988565b9050919050565b7f4e487b7100000000000000000000000000000000000000000000000000000000600052601160045260246000fd5b6000611a0582610f8b565b9150611a1083610f8b565b9250828201905080821115611a2857611a276119cb565b5b92915050565b7f4e487b7100000000000000000000000000000000000000000000000000000000600052603260045260246000fd5b6000611a6882610f8b565b91507fffffffffffffffffffffffffffffffffffffffffffffffffffffffffffffffff8203611a9a57611a996119cb565b5b600182019050919050565b7f496e73756666696369656e74207061796d656e74000000000000000000000000600082015250565b6000611adb601483611213565b9150611ae682611aa5565b602082019050919050565b60006020820190508181036000830152611b0a81611ace565b9050919050565b7f4f776e61626c653a206e6577206f776e657220697320746865207a65726f206160008201527f6464726573730000000000000000000000000000000000000000000000000000602082015250565b6000611b6d602683611213565b9150611b7882611b11565b604082019050919050565b60006020820190508181036000830152611b9c81611b60565b9050919050565b7f4f776e61626c653a2063616c6c6572206973206e6f7420746865206f776e6572600082015250565b6000611bd9602083611213565b9150611be482611ba3565b602082019050919050565b60006020820190508181036000830152611c0881611bcc565b905091905056fea2646970667358221220e14f7c85b542c35292d4476a006cd08a08ad786157f5420ff269d0c3953106e364736f6c63430008130033",
  "immutableReferences": {},
  "source": "// SPDX-License-Identifier: MIT\r\npragma solidity ^0.8.19;\r\n\r\nimport \"@openzeppelin/contracts/access/Ownable.sol\";\r\nimport \"@openzeppelin/contracts/utils/Counters.sol\";\r\n\r\ncontract ResearchPaper is Ownable {\r\n    using Counters for Counters.Counter;\r\n    Counters.Counter private _paperIds;\r\n\r\n    struct Paper {\r\n        uint256 id;\r\n        string title;\r\n        string author;\r\n        string ipfsHash;\r\n        address owner;\r\n        uint256 price;\r\n        uint256 citations;\r\n    }\r\n\r\n    mapping(uint256 => Paper) public papers;\r\n    mapping(string => bool) private existingHashes;\r\n    mapping(uint256 => address[]) public paperAccessList;\r\n\r\n    event PaperUploaded(uint256 indexed paperId, string title, address indexed owner);\r\n    event PaperPurchased(uint256 indexed paperId, address indexed buyer);\r\n    event PaperCited(uint256 indexed paperId, address indexed citer);\r\n\r\n    function uploadPaper(string memory _title, string memory _author, string memory _ipfsHash, uint256 _price) public {\r\n        require(!existingHashes[_ipfsHash], \"Paper already exists\");\r\n\r\n        _paperIds.increment();\r\n        uint256 paperId = _paperIds.current();\r\n\r\n        papers[paperId] = Paper({\r\n            id: paperId,\r\n            title: _title,\r\n            author: _author,\r\n            ipfsHash: _ipfsHash,\r\n            owner: msg.sender,\r\n            price: _price,\r\n            citations: 0\r\n        });\r\n\r\n        existingHashes[_ipfsHash] = true;\r\n\r\n        emit PaperUploaded(paperId, _title, msg.sender);\r\n    }\r\n\r\n    function purchasePaper(uint256 _paperId) public payable {\r\n        Paper storage paper = papers[_paperId];\r\n        require(msg.value >= paper.price, \"Insufficient payment\");\r\n\r\n        payable(paper.owner).transfer(msg.value);\r\n        paperAccessList[_paperId].push(msg.sender);\r\n\r\n        emit PaperPurchased(_paperId, msg.sender);\r\n    }\r\n\r\n    function citePaper(uint256 _paperId) public {\r\n        Paper storage paper = papers[_paperId];\r\n        require(paper.owner != address(0), \"Invalid paper\");\r\n\r\n        paper.citations += 1;\r\n        payable(paper.owner).transfer(0.001 ether); // Reward for citations\r\n\r\n        emit PaperCited(_paperId, msg.sender);\r\n    }\r\n\r\n    function getPaper(uint256 _paperId) public view returns (Paper memory) {\r\n        return papers[_paperId];\r\n    }\r\n\r\n    function checkAccess(uint256 _paperId, address user) public view returns (bool) {\r\n        for (uint i = 0; i < paperAccessList[_paperId].length; i++) {\r\n            if (paperAccessList[_paperId][i] == user) {\r\n                return true;\r\n            }\r\n        }\r\n        return false;\r\n    }\r\n}\r\n",
  "sourcePath": "C:\\Users\\P Sheetal Reddy\\Desktop\\VIT\\blockchain\\project\\Research Paper Liscencing platform\\contracts\\ResearchPaper.sol",
  "compiler": {
    "name": "solc",
    "version": "0.8.19+commit.7dd6d404.Emscripten.clang"
  },
  "schemaVersion": "3.4.16",
  "updatedAt": "2025-02-24T08:49:03.888Z",
  "networkType": "ethereum",
  "devdoc": {
    "kind": "dev",
    "methods": {
      "owner()": {
        "details": "Returns the address of the current owner."
      },
      "renounceOwnership()": {
        "details": "Leaves the contract without owner. It will not be possible to call `onlyOwner` functions. Can only be called by the current owner. NOTE: Renouncing ownership will leave the contract without an owner, thereby disabling any functionality that is only available to the owner."
      },
      "transferOwnership(address)": {
        "details": "Transfers ownership of the contract to a new account (`newOwner`). Can only be called by the current owner."
      }
    },
    "version": 1
  },
  "userdoc": {
    "kind": "user",
    "methods": {},
    "version": 1
  }
}